:020000040800F2
:1000000050500020E1010008FD3E000823320008A6
:10001000193C0008E50B0008EB6000080000000038
:10002000000000000000000000000000490100087E
:10003000250C0008000000008D0100086950000830
:10004000FB010008FB010008FB010008FB010008A0
:10005000FB010008FB010008FB010008FB01000890
:10006000FB010008FB010008FB010008FB01000880
:10007000FB010008FB010008FB010008FB01000870
:10008000FB010008FB010008FB010008FB01000860
:10009000FB010008FB010008FB010008FB01000850
:1000A000FB010008FB010008FB010008FB01000840
:1000B000FB010008FB010008FB010008FB01000830
:1000C000FB010008FB010008FB010008FB01000820
:1000D000FB010008515F0008655F0008795F0008B8
:1000E000FB010008FB010008FB010008FB01000800
:1000F000FB010008FB010008FB010008FB010008F0
:10010000FB010008FB010008FB010008FB010008DF
:100110006D5C0008815C0008215100083151000825
:10012000FB010008FB010008FB010008FB010008BF
:10013000DFF810D000F098FC00480047EB9B000867
:10014000AFF3008050500020224B19680868B0E8D7
:10015000F00F80F30988BFF36F8F4FF0000080F33A
:1001600011884EF00D0E7047000000000648006830
:10017000006880F3088862B661B6BFF34F8FBFF3A3
:100180006F8F00DF00BF00BF08ED00E0EFF30980D4
:10019000BFF36F8F0F4B1A6820E9F00F106008B59E
:1001A0004FF0500080F31188BFF34F8FBFF36F8F74
:1001B0000BF0C8FB4FF0000080F31188BDE8084049
:1001C00019680868B0E8F00F80F30988BFF36F8FF3
:1001D000704700BF9C000020EFF3058070470000CF
:1001E0000648804706480047FEE7FEE7FEE7FEE7D1
:1001F000FEE7FEE7FEE7FEE7FEE7FEE71F51000829
:1002000031010008202A04DB203A21FA02F0002103
:10021000704721FA02F3D040C2F120029140084316
:100220001946704740EA01039B0703D009E008C95B
:10023000121F08C0042AFAD203E011F8013B00F8AB
:10024000013B521EF9D27047D2B201E000F8012BF7
:10025000491EFBD270470022F6E710B513460A4646
:1002600004461946FFF7F0FF204610BDF0B480EABF
:100270000102D40F4200B2EB410F02D202460846FF
:1002800011464A0042D0C30DDDB2C1F3C752AD1AC8
:10029000202D35DAC1F3160141F4000204B15242B7
:1002A000C5F1200602FA06F12A411044B3EBD05FF3
:1002B00023D0C4B1012DA0EBC35009DCF0BC4FF03A
:1002C000004202EAC352DBB200F5000000F011BBAD
:1002D000400000F1807000EBC350A0F1807040EA54
:1002E000D170490009E0490841EAC071A0EBC35050
:1002F00000F50000400800EBC350F0BC00F0F0BA7D
:100300006142012202EB4101001BF6E7F0BC70479D
:1003100081F00041AAE780F00040A7E780EA0102EF
:1003200010B502F00043400022D04A001FD0010E59
:1003300001EB1261C0F35600C2F3560240F4000014
:1003400042F40002A0FB022000047F39140400D014
:10035000401C50EA124001D44000491EC2B20C06B3
:1003600004EBD010401C4008802A02D003E000209B
:1003700010BD20F00100002900DA0020184310BD54
:1003800030B480EA010202F0004530F0004221F072
:10039000004013D090B1C30DD40DC2F31601C0F3C9
:1003A0001600E41A41F4000140F400027D34914249
:1003B00001D3641C00E04900002C02DA30BC0020AC
:1003C00070474FF400000023914201D3891A034380
:1003D00040084FEA4101F7D151B1914202D14FF0AB
:1003E000004105E002D24FF0010101E06FF0010190
:1003F00003EBC450284430BC00F072BA2DE9FE4F24
:10040000804681EA0300C00F0C46009021F00041B5
:1004100023F00045B8EB0200A94105D24046214631
:1004200090461C460B46024623F00040104347D03E
:10043000270DC7F30A00C3F30A510290401A019036
:1004400040286BDAC3F3130040F4801B00989246F7
:1004500020B10023D2EB030A63EB0B0B0198594642
:10046000C0F14002504600F01AFA06460D465046CA
:100470005946019A00F022FA10EB0800614100246D
:1004800087EA115284EAE7731A4340D0009A62B3B4
:10049000019A012A4FEA075215DC001B61EB0201A9
:1004A0004FF0004202EA0752CDE90042001C41F53C
:1004B000801132462B4600F059FA03B0BDE8F08FA8
:1004C00040462146F9E7001B61EB0201001C41F5A3
:1004D000801300185B412018A2F5001747EB0301B9
:1004E00040EAD570B6196D4111E06D084FEA360645
:1004F00045EAC0754FEA0752001B61EB0201001C80
:1005000041F5801149084FEA300000195141324647
:100510002B4603B0BDE8F04F00F019BA0098012255
:1005200040000023D0EB020263EBE0730098214609
:100530004FEAE074B8EB000061EB0401E9E783F0F7
:1005400000435BE781F0004158E72DE9FE4F81EA67
:10055000030404F0004421F0004100944FF0000B2C
:1005600023F0004350EA01045ED052EA03045BD05A
:10057000C3F30A54C1F30A552C44A4F2F334019492
:10058000A0FB0254C1F3130141F48011C3F3130320
:1005900043F4801301FB024400FB034E840A970AD4
:1005A00044EA815447EA8357A4FB076802958D0A01
:1005B00005FB07854FEA932C04FB0C542705029D8D
:1005C0004FEA065847EA1637B5EB08056EEB070CFD
:1005D000870E920E47EA811742EA8312A7FB0201B7
:1005E000B6EB0B0164EB00042B0D43EA0C335E18F1
:1005F00044EB1C50DA465146E7FB0201C5F31304F5
:100600004FEA0B3343EA14534FEA0432019C43EAA6
:100610000603A4F10C040294009CCDE900B400F0A0
:10062000A5F903B0BDE8F08F00200146F9E72DE9F8
:10063000F04D81EA030404F0004B21F0004514461C
:100640004FF0000A23F0004150EA050220D054EA9E
:1006500001021DD0C5F30A570246C5F31303C1F3C7
:100660001300C1F30A5640F4801543F48013A7EB3E
:100670000608101BD64608F2FD3873EB050002D3BE
:1006800008F1010801E092185B41B8F1000F03DAAC
:1006900000200146BDE8F08D00204FF48011064691
:1006A00084460EE0171B73EB050705D3121B63EBA3
:1006B000050306434CEA010C49084FEA3000921842
:1006C0005B4150EA0107EDD152EA030012D082EA01
:1006D000040083EA0501084305D0101BAB4106D294
:1006E0000122002306E000224FF0004302E06FF0F9
:1006F000010253101AEB06004CEB085110EB0A00F4
:1007000041EB0B01BDE8F04D00F021B9C10F80EACB
:10071000E0700844CA079623002100F0EAB8962347
:100720000022114600F0E5B800F0004220F0004041
:10073000C10DC0F3160040F400007F2901DA00204B
:100740007047962903DCC1F19601C84001E0963953
:100750008840002AF4D04042704720F00040C10D8C
:10076000C0F3160040F400007F2901DA0020704732
:10077000962903DCC1F19601C8407047963988403C
:10078000704770B5C1F30A5201F000450024C1F36F
:10079000130140F2FF3341F480119A4201DA002044
:1007A00070BD40F233439A42A2F2334203DC52421C
:1007B000FFF728FD00E090402C43F1D0404270BD8F
:1007C00000F0004230F000400AD0C10D01F5607128
:1007D000C0F3160042EA0151C208400711437047B6
:1007E0000020014670470000002801DBC0F10040F6
:1007F000002901DBC1F1004181427047002801DB83
:10080000C0F10040002901DBC1F10041884270477E
:1008100030B50B46014600202022012409E021FAD0
:1008200002F59D4205D303FA02F5491B04FA02F5CD
:100830002844151EA2F10102F1DC30BD2DE9F05F64
:100840000546002092469B4688460646814640243F
:100850001BE02846414647462246FFF7D3FC534655
:100860005A46C01A914110D311461846224600F04C
:1008700016F82D1A67EB01084F4622460120002189
:1008800000F00DF817EB00094E41201EA4F1010401
:10089000DFDC484631462A464346BDE8F09F202A21
:1008A00004DB203A00FA02F1002070479140C2F1C7
:1008B000200320FA03F3194390407047202A06DBF7
:1008C000CB17203A41FA02F043EAE07306E041FA1E
:1008D00002F3D040C2F1200291400843194670470C
:1008E0000029A8BF7047401C490008BF20F0010044
:1008F000704710B4B0FA80FC00FA0CF050EA010422
:1009000004BF10BC704749B1CCF1200421FA04F4B3
:1009100011FA0CF118BF012121430843A3EB0C018C
:10092000CB1D4FEA00614FEA102042BF002010BCEF
:10093000704700EBC35010440029A4BF10BC70479F
:10094000401C490008BF20F0010010BC704710B5E2
:10095000141E73F1000408DA401C41F100019218E2
:100960005B411A4301D120F0010010BD2DE9F04D8B
:1009700092469B4611B1B1FA81F202E0B0FA80F2E0
:1009800020329046FFF78BFF04460F4640EA0A00EC
:1009900041EA0B0153465A46084313D0114653EA25
:1009A000010019D0C8F140025046FFF72BFC054664
:1009B0000E46504659464246FFF771FF084305D0A0
:1009C000012004E020463946BDE8F08D00200543B3
:1009D00046EAE0762C4337430A986305E40AA0EB25
:1009E00008000022FD0A44EA47540A3002D50020DC
:1009F0000146E9E7010510196941DDE908450019DB
:100A00006941BDE8F04DA2E7C1F30A52C1F31301F9
:100A100040F2FF3341F480119A4202DA002001468D
:100A2000704740F233439A42A2F2334202DC524210
:100A3000FFF7E8BBFFF733BF30B5041E71F10004C8
:100A400004DB4FF00044404264EB0101141E73F1DB
:100A5000000405DB1C464FF00043524263EB0403E5
:100A6000994208BF904230BD064C074D06E0E06851
:100A700040F0010394E8070098471034AC42F6D3E5
:100A8000FFF75AFB8C790308AC79030870B504466C
:100A900000252068806800F00100F0B120688068BF
:100AA00020F001002168886000F0CCFE05460EE0D1
:100AB00000F0C8FE401B022809D9A06A40F01000CF
:100AC000A062E06A40F00100E062012070BD206891
:100AD000806800F001000028EAD10020F6E7014616
:100AE000A1F1300017282DD2DFE800F00C0E101213
:100AF0001416181A1C1E2C2C2C2C2C2C2C202224C6
:100B000026282A00002070470120FCE70220FAE78F
:100B10000320F8E70420F6E70520F4E70620F2E7D3
:100B20000720F0E70820EEE70920ECE70A20EAE7D3
:100B30000B20E8E70C20E6E70D20E4E70E20E2E7D3
:100B40000F20E0E700BFDEE710B504462CB9002215
:100B50008021234800F070FE04E00122802120481B
:100B600000F06AFE002000E0401C6428FCDB00204E
:100B700000E0401C6428FCDB002000E0401C6428EE
:100B8000FCDB01224021164800F056FE002000E068
:100B9000401C6428FCDB002000E0401C6428FCDBD7
:100BA000002000E0401C6428FCDB002000E0401C2A
:100BB0006428FCDB002000E0401C6428FCDB0022F1
:100BC0004021074800F038FE002000E0401C642867
:100BD000FCDB002000E0401C6428FCDB10BD0000B2
:100BE000000C014000BFFEE7F0B502460B46FF24B3
:100BF000FF25164609E016F8010B80EA04010748B4
:100C0000405C80EA05040648455C181EA3F1010714
:100C1000BBB2F0D145EA0420F0BD000028CA0008AC
:100C200028CB00087047000038B505460C460DA0DB
:100C3000006800908DF802400B48BDF80010C1809C
:100C40009DF802100172224629460930FFF7EAFAA0
:100C5000E01CC1B2054880F80614032004F0C6FC6D
:100C600038BD00005AA50000E8160020E813002057
:100C70002DE9F04788B007460D4616469846DDE94F
:100C8000109A002482222146641C0DF801203A1299
:100C90002146641C0DF80120FAB22146641C0DF8AF
:100CA000012000222146641C0DF801200422214667
:100CB000641C0DF8012000222146641C0DF801205F
:100CC00001222146641C0DF801202A122046611CD5
:100CD000CCB20DF80020EAB22046611CCCB20DF86F
:100CE000002032122046611CCCB20DF80020F2B276
:100CF0002046611CCCB20DF8002005EB0800C0F3C3
:100D000007222046611CCCB20DF8002005EB08003C
:100D1000C2B22046611CCCB20DF8002006EB0900DF
:100D2000C0F307222046611CCCB20DF8002006EB70
:100D30000900C2B22046611CCCB20DF800204FEA77
:100D40002A222046611CCCB20DF800200AF0FF02D6
:100D50002046611CCCB20DF80020FF222046611C09
:100D6000CCB20DF8002000222046611CCCB20DF858
:100D7000002021466846FFF757FF08B0BDE8F0871E
:100D800070B586B005460E46002482222146641CBA
:100D900001A842542A122146641C42542146641C74
:100DA000455401A90819314606F0AAFF241D214621
:100DB00001A8FFF739FF06B070BD70B586B00546D3
:100DC0000E46002482222146641C01A842542A12A5
:100DD0002146641C42542146641C4554321221466B
:100DE000641C42542146641C46542146FFF71CFFF4
:100DF00006B070BD70B586B005460E46002482224E
:100E00002146641C01A842542A122146641C425403
:100E10002146641C455401A90819314606F07CFF9F
:100E2000241D214601A8FFF7FFFE06B070BD00009B
:100E300010B586B0002482222146641C01A84254C9
:100E400000222146641C425410222146641C425454
:100E50001B4802782146641C01A842541848427875
:100E60002146641C01A84254154882782146641C1E
:100E700001A8425400222146641C425410480279C1
:100E80002046611CCCB201A90A540D484279204683
:100E9000611CCCB201A90A54094882792046611C20
:100EA000CCB201A90A5400222046611CCCB201A98F
:100EB0000A54214601A8FFF7B7FE06B010BD000096
:100EC00058000020704730B504460D4600222946E0
:100ED000204600F001F830BDF0B50346012500249E
:100EE0001148407A01281CDC00200F4E767A0E4F04
:100EF000B8553846467A001D40F82630001F467A1D
:100F0000083082553E46707A461C7E72044604F1D3
:100F1000300008703A2048702F2088700020C87078
:100F200000252846F0BD0000141F002070B50024E5
:100F3000082516E000224FF400510C4800F07CFC1C
:100F40006006040E4FF48041084800F06DFC08B1C3
:100F500044F0010401225103044800F06DFC681EB6
:100F6000C5B2002DE6DC204670BD0000000C01403B
:100F700070B5044608251DE004F0800028B1012268
:100F8000D1030E4800F058FC05E000224FF4004168
:100F90000A4800F051FC00224FF40051074800F0CD
:100FA0004BFC6006040E01225103044800F044FC8F
:100FB000681EC5B2002DDFDC70BD0000000C0140D2
:100FC00038B5024600230020009000BF92F82400AC
:100FD000012801D1022038BD012082F8240000BF81
:100FE0004868072812D21068406B0C79641E04EB25
:100FF00084051F24AC40A0430D796D1E05EB8505CB
:101000000C68AC4020431468606327E048680D28F2
:1010100012D21068006B0C79E41F04EB84051F24C6
:10102000AC40A0430D79ED1F05EB85050C68AC4085
:1010300020431468206311E01068C06A0C790D3CED
:1010400004EB84051F24AC40A0430D790D3D05EB56
:1010500085050C68AC4020431468E06208680A28E3
:1010600012D31068C0680C780A3C04EB44050724CE
:10107000AC40A0430D780A3D05EB45058C68AC40BB
:1010800020431468E0600FE0106800690C7804EBFE
:1010900044050724AC40A0430D7805EB45058C685A
:1010A000AC402043146820610868102802D008680A
:1010B000112827D1174C1068A0421ED110688068F3
:1010C00000F40000F0B91068806840F40000146873
:1010D000A0600868102815D10F4800680F4CB0FBBD
:1010E000F4F000EB80004000009002E00098401E09
:1010F000009000980028F9D104E0906A40F02000A8
:101100009062012300BF002082F8240000BF18462F
:1011100061E70000002401409000002040420F00E1
:101120002DE9F0410446002700250026A84614B901
:101130000120BDE8F081A06810B1207D00B100BFA2
:10114000A06A30B90020E06284F82400204600F054
:1011500097F82046FFF79AFC0746A06A00F01000B7
:10116000002873D1002F7ED1A06A20F4885040F06F
:101170000200A0623F4AD4E90001904208D1E06930
:10118000B0F5402F02D14FF4002002E0E06900E00A
:10119000E0690143207B41EA40000643A068B0F5C6
:1011A000807F02D0A068012802D14FF4807000E057
:1011B00000200543207D012811D1207B38B9A0698A
:1011C000401E4FF4006141EA4030054307E0A06A49
:1011D00040F02000A062E06A40F00100E062206878
:1011E000406820F46940284321684860206880688E
:1011F00021490840304321688860A068B0F5807FAD
:1012000002D0A068012802D14FF4807000E00020D5
:10121000B0F5807F03D1208A401E4FEA0058206835
:10122000C06A20F4700040EA08002168C8622068A3
:10123000806812490840B04209D10020E062A06AEB
:1012400020F0020040F00100A06211E00BE0A06A73
:1012500020F0020040F01000A062E06A40F00100BF
:10126000E062012704E0A06A40F01000A0620127BC
:1012700038465EE7003C0140FDF7E1FFFE0E1FFF30
:1012800010B586B0044600200290039004900590AB
:1012900014492068884222D100BF1348806940F475
:1012A0000070114988610846806900F4007001905F
:1012B00000BF00BF00BF0846806940F01000886191
:1012C0000846806900F01000019000BF00BF0120B7
:1012D00002900320039002A9044800F005F906B02B
:1012E00010BD000000240140001002400010014029
:1012F00010B504460CB9012010BD607920B900205A
:101300002071204600F004F8012060710020F3E70E
:1013100008B5094A016891420DD100BF07494969E2
:1013200041F04001054A51611146496901F040010F
:10133000009100BF00BF08BD003002400010024015
:1013400070B50446002594F82100022803D004203B
:10135000A0630125C1E02068006820F00E0021682C
:1013600008602068006820F00100216808605C497E
:101370002068884252D95A4978392068884201D178
:10138000012047E0564964392068884201D1102085
:1013900040E0534950392068884201D1801539E036
:1013A0004F493C392068884201D1801432E04C49D1
:1013B00028392068884202D14FF480302AE0484919
:1013C00014392068884202D14FF4801022E0444949
:1013D0002068884201D140041CE0424920688842CC
:1013E00001D1012016E03F4914312068884201D123
:1013F00010200FE03B4928312068884201D1801538
:1014000008E038493C312068884201D1801401E06D
:101410004FF480303349091F086051E03049783972
:101420002068884201D1012047E02D4964392068B5
:10143000884201D1102040E0294950392068884273
:1014400001D1801539E026493C392068884201D114
:10145000801432E0224928392068884202D14FF4B2
:1014600080302AE01E4914392068884202D14FF4A6
:10147000801022E01A492068884201D140041CE013
:1014800018492068884201D1012016E0154914311D
:101490002068884201D110200FE0124928312068CD
:1014A000884201D1801508E00E493C31206888420D
:1014B00001D1801401E04FF480300949803948603F
:1014C000012084F8210000BF002084F8200000BF24
:1014D000606B10B12046616B8847284670BD0000E4
:1014E00080000240080402402DE9F847024600232C
:1014F0009C467BE14FF0010808FA03F4D1F8008024
:1015000008EA0400A0427DD1DFF8F4A2D1F80480FB
:10151000A8EB0A09D0453AD014DCB8F1030F50D03B
:1015200009DCB8F1000F31D0B8F1010F1CD0B8F1CF
:10153000020F49D120E0B8F1110F18D0B8F1120F05
:1015400042D11EE0B9F5881F25D006DCB9F5803FF1
:1015500020D0B9F5801F37D11AE0B9F5001F18D097
:10156000B9F5041F30D117E0D1F80CC02DE0D1F847
:101570000C8008F1040C28E0D1F80C8008F1080C6C
:1015800023E0D1F80C8008F10C0C1EE000BF00BF76
:1015900000BF00BF00BF00BFD1F80880B8F1000F46
:1015A00002D14FF0040C0BE0D1F80880B8F1010F24
:1015B00003D14FF0080C146102E04FF0080C5461A5
:1015C00003E04FF0000C00E000BF00BFFF2801D88F
:1015D000904601E002F104084646FF2802D84FEA8F
:1015E000830803E0A3F108084FEA88084746D6F8C5
:1015F00000804FF00F0909FA07F928EA09080CFAE8
:1016000007F900E07AE048EA0908C6F80080D1F856
:10161000048008F08058B8F1805F6FD100BFDFF818
:10162000E481D8F8188048F00108DFF8D891C9F8AB
:101630001880C846D8F8188008F00108CDF8008056
:1016400000BF00BF4FEAB9384FEA930958F8295054
:101650004FEA83784FEA18794FF00F0808FA09F833
:1016600025EA0805DFF8A081424502D14FF00008C5
:1016700024E0DFF89881424502D14FF001081DE0D7
:10168000DFF88C81424502D14FF0020816E0DFF806
:101690008481424502D14FF003080FE0DFF87881E2
:1016A000424502D14FF0040808E0DFF8708142455E
:1016B00002D14FF0050801E04FF006084FEA8379A8
:1016C0004FEA197908FA09F848EA0505DFF8508168
:1016D0004FEA930948F82950D1F8048008F480387B
:1016E000B8F5803F0BD1DFF83C81D8F8008048EA9C
:1016F0000008DFF83091C9F800800AE075E0DFF8F3
:101700002481D8F8008028EA0008DFF81891C9F889
:101710000080D1F8048008F40038B8F5003F0ED1FD
:10172000DFF8008108F10408D8F8008048EA0008D2
:10173000DFF8F09009F10409C9F800800DE0DFF846
:10174000E48008F10408D8F8008028EA0008DFF8EF
:10175000D49009F10409C9F80080D1F8048008F494
:101760008018B8F5801F0ED1DFF8B88008F108089E
:10177000D8F8008048EA0008DFF8A89009F10809C5
:10178000C9F800800DE0DFF89C8008F10808D8F85F
:10179000008028EA0008DFF88C9009F10809C9F8F0
:1017A0000080D1F8048008F40018B8F5001F0ED1AD
:1017B000DFF8708008F10C08D8F8008048EA0008CB
:1017C000DFF8609009F10C09C9F800800DE0DFF83E
:1017D000548008F10C08D8F8008028EA0008DFF8E7
:1017E000449009F10C09C9F800805B1CD1F8008015
:1017F00028FA03F8B8F1000F7FF47CAEBDE8F88753
:10180000000011100010024000080140000C0140CF
:10181000001001400014014000180140001C01406C
:101820000800014000040140024693680B400BB1E0
:10183000012000E0002070470AB1016101E00B04C3
:101840000361704701480068704700008400002071
:101850000348006803490978084401490860704753
:10186000840000208C00002010B50848006840F07B
:10187000100006490860032000F0C6F8002000F0C0
:1018800007F800F049F8002010BD000000200240D9
:1018900070B588B004460025002600222146372076
:1018A00000F074F8372000F061F800BF1648C069F6
:1018B00040F020001449C8610846C06900F02000CB
:1018C000019000BF00BF02A903A800F00FFA00F0CA
:1018D00035FA45000D48B5FBF0F0461E0C480D49A1
:1018E000086040F2E7310B48C160466000210161A9
:1018F000816000F089FE20B9064800F0EFFE08B0D4
:1019000070BD0120FBE700000010024040420F00C4
:1019100000140040A805002008B500BF11488069E8
:1019200040F001000F4988610846806900F001001D
:10193000009000BF00BF00BF0846C06940F0805063
:10194000C8610846C06900F08050009000BF00BF29
:1019500000BF0549486820F0E06040F00070486032
:1019600000BF08BD001002400000014001460846CB
:10197000002809DB00F01F0301229A4043099B0065
:1019800003F1E023C3F8002100BF70472DE9F05FA9
:1019900080460D461646002704F0ACFC0746394643
:1019A0002A46334601F00700C0F1070ABAF1040FD6
:1019B00002D94FF0040A01E0C0F1070AD14600F154
:1019C000040ABAF1070F02D24FF0000A01E0A0F1B9
:1019D000030AD4464FF0010A0AFA09FAAAF1010AE9
:1019E0000AEA020A0AFA0CFA4FF0010B0BFA0CFB96
:1019F000ABF1010B0BEA030B4AEA0B04214640460C
:101A000004F080FCBDE8F09F00BF00F00702064B29
:101A100019684FF6FF031940044B0B4343EA0221B8
:101A2000014B196000BF70470CED00E00000FA05A3
:101A3000F8B5044600260025207800F001000028B3
:101A40006BD000274348C06900F0805070B900BFD8
:101A50004048C06940F080503E49C8610846C069AE
:101A600000F08050009000BF00BF01273A48006896
:101A700000F48070B0B93848006840F4807036498E
:101A80000860FFF7DFFE064606E0FFF7DBFE801B7F
:101A9000642801D90320F8BD2F48006800F4807045
:101AA0000028F2D02B48006A00F440752DB3A088BE
:101AB00000F44070A84220D02648006A20F4407507
:101AC000012026490860002008602248056205F0D0
:101AD000010090B1FFF7B6FE064608E0FFF7B2FE40
:101AE000801B41F28831884201D90320D3E719488D
:101AF000006A00F002000028F0D01648006A20F4C6
:101B000040706168084313490862012F04D10846F8
:101B1000C06920F08050C86100BF207800F002004A
:101B2000022807D10B48406820F44040A1680843D0
:101B300008494860207800F01000102807D10548B7
:101B4000406820F480006169084302494860002031
:101B5000A1E7000000100240007000404004424233
:101B600070B504460D460CB9012070BD5A48006896
:101B700000F00700A8420ED25748006820F0070086
:101B80002843554908600846006800F00700A8424D
:101B900001D00120E9E7207800F0020002281DD1E1
:101BA000207800F00400042805D14C48406840F437
:101BB000E0604A494860207800F00800082805D114
:101BC0004648406840F46050444948604348406893
:101BD00020F0F000A168084340494860207800F0F8
:101BE000010078B36068012806D13C48006800F421
:101BF000003090B90120B8E76068022806D1374864
:101C0000006800F0007040B90120AEE7334800687A
:101C100000F0020008B90120A7E73048406820F032
:101C20000300616808432D494860FFF70BFE064634
:101C300009E0FFF707FE801B41F28831884202D994
:101C4000032092E707E02548406800F00C00616837
:101C5000B0EB810FEDD12048006800F00700A842EA
:101C60000ED91D48006820F0070028431A49086073
:101C70000846006800F00700A84201D0012074E780
:101C8000207800F00400042807D11448406820F4AC
:101C9000E060E168084311494860207800F00800DE
:101CA000082808D10D48406820F46050216940EAB6
:101CB000C1000A49486000F061F808494968C1F369
:101CC0000311074A515CC84006490860064800688D
:101CD000FFF7DEFD002048E7002002400010024030
:101CE00038CC000890000020880000200F220260FD
:101CF0000D4A526802F0030242600B4A526802F039
:101D0000F0028260084A526802F4E062C260064A49
:101D1000526802F46052D2080261044A126802F06A
:101D200007020A60704700000010024000200240D5
:101D300001480068704700009000002000B5FFF7E0
:101D4000F7FF04494968C1F30221034A515CC840C6
:101D500000BD00000010024048CC000800B5FFF7AD
:101D6000E7FF04494968C1F3C221034A515CC840F6
:101D700000BD00000010024048CC0008F0B585B05E
:101D80000FF26C0C9CE8E01001A8A0E8E0101CA584
:101D90002D68009500210022002300240020194D09
:101DA000696801F00C05F5B1042D02D0082D19D198
:101DB00001E0154819E001ADC1F38346AC5D01F4C3
:101DC000803555B10F4D6D68C5F340451DF80520B0
:101DD0000D4D6543B5FBF2F302E00C4D04FB05F33A
:101DE000184602E000BF084800BF00BF05B0F0BDC4
:101DF00002030405060708090A0B0C0D0E0F10104C
:101E0000010200000010024000127A0000093D00AB
:101E1000F8B504460CB90120F8BD207800F00100A7
:101E2000002878D0F848406800F00C0004280CD056
:101E3000F548406800F00C00082811D1F2484068CD
:101E400000F48030B0F5803F0AD1EF48006800F41C
:101E5000003000285FD0606800285CD10120DBE7FB
:101E600000BF6068B0F5803F06D1E748006840F4E5
:101E70008030E549086028E0606858B9E2480068A9
:101E800020F48030E04908600846006820F4802093
:101E900008601AE06068B0F5A02F0BD1DA4800683E
:101EA00040F48020D84908600846006840F480303B
:101EB00008600AE0D448006820F48030D249086005
:101EC0000846006820F48020086000BF606888B180
:101ED000FFF7B8FC054606E0FFF7B4FC401B64289A
:101EE00001D9032098E7C848006800F400300028B2
:101EF000F2D010E0FFF7A6FC054606E0FFF7A2FCD3
:101F0000401B642801D9032086E7BF48006800F41D
:101F100000300028F2D1207800F00200022857D1CA
:101F2000B948406800F00C0050B1B748406800F074
:101F30000C00082818D1B448406800F4803098B9E3
:101F4000B148006800F0020020B12069012801D0EA
:101F5000012061E7AC48006820F0F800616940EAC0
:101F6000C100A949086033E02069E8B10120A74910
:101F70000860FFF767FC054606E0FFF763FC401BBF
:101F8000022801D9032047E79F48006800F00200BB
:101F90000028F2D09C48006820F0F800616940EA0F
:101FA000C1009949086013E0002098490860FFF7D4
:101FB00049FC054606E0FFF745FC401B022801D915
:101FC000032029E79048006800F002000028F2D1C1
:101FD000207800F0080008282DD1A069B8B10120B0
:101FE0008B490860FFF72EFC054606E0FFF72AFC48
:101FF000401B022801D903200EE78348406A00F005
:1020000002000028F2D0012001F07AFF13E0002046
:102010007F490860FFF716FC054606E0FFF712FC53
:10202000401B022801D90320F6E67748406A00F0F9
:1020300002000028F2D1207800F00400042873D1B7
:1020400000277148C06900F0805070B900BF6E4829
:10205000C06940F080506C49C8610846C06900F012
:102060008050009000BF00BF01276A48006800F45C
:102070008070B0B96748006840F4807065490860B6
:10208000FFF7E0FB054606E0FFF7DCFB401B64289A
:1020900001D90320C0E65F48006800F48070002882
:1020A000F2D000BFE068012806D15748006A40F02E
:1020B00001005549086227E0E06858B95248006AB3
:1020C00020F00100504908620846006A20F0040030
:1020D000086219E0E06805280BD14B48006A40F01F
:1020E0000400494908620846006A40F0010008629D
:1020F0000AE04548006A20F00100434908620846AA
:10210000006A20F00400086200BFE068A0B1FFF799
:1021100099FB054609E0FFF795FB401B41F288312A
:10212000884202D9032077E622E03748006A00F0AF
:1021300002000028EFD012E0FFF784FB054608E01C
:10214000FFF780FB401B41F28831884201D9032010
:1021500062E62D48006A00F002000028F0D1012F4D
:1021600005D12948C06920F080502749C86100BFC7
:10217000E069C8B32448406800F00C00082860D02B
:10218000E069022848D1002020490866FFF75AFB81
:10219000054606E0FFF756FB401B022801D9032045
:1021A0003AE61948006800F000700028F2D1206A71
:1021B000B0F5803F07D11448406820F40030A16892
:1021C000084311494860D4E9080108430E494968A9
:1021D00021F4741108430C49486001200B4908663A
:1021E000FFF730FB054607E03DE0FFF72BFB401B08
:1021F000022801D903200FE60348006800F00070B0
:102200000028F2D02FE000000010024000004242FF
:102210008004424200700040002014490866FFF725
:1022200011FB054606E0FFF70DFB401B022801D914
:102230000320F1E50E48006800F000700028F2D19C
:1022400011E0E069012800D1E6E50948466806F496
:102250008031206A814204D106F47011606A8142A3
:1022600001D00120D8E50020D6E500000000424260
:102270000010024010B504460CB9012010BD606A80
:1022800038B96068B0F5827F00D105E00021E161D6
:1022900002E00021216161610021A16294F85100F6
:1022A00028B9002084F85000204600F043F80220AE
:1022B00084F851002068006820F040002168086020
:1022C000A08800F48270218901F404410843A189A7
:1022D00001F400610843217C01F002010843217DE3
:1022E00001F001010843218B01F400710843217FB3
:1022F00001F0380108432021095D01F08001084305
:10230000218D01F400510843216808600421A0696F
:1023100001EA1040216848602068C06920F400602C
:102320002168C86100206065012084F85100002008
:10233000A4E7000010B586B0044600200290039088
:10234000049005901949206888422DD100BF184893
:10235000806940F48050164988610846806900F41D
:102360008050019000BF00BF00BF0846806940F068
:10237000040088610846806900F00400019000BFF5
:1023800000BFA0200290022003900320059002A924
:102390000848FFF7A9F8402002900020039004901D
:1023A00002A90448FFF7A0F806B010BD00300140B4
:1023B00000100240000801402DE9F84F044688460D
:1023C00016461D464FF0000A00BF94F85000012841
:1023D00002D10220BDE8F88F012084F8500000BF30
:1023E000FFF730FA0746B14694F85100012802D0B1
:1023F0004FF0020AADE0B8F1000F00D016B94FF06F
:10240000010AA6E0032084F8510000206065C4F8AA
:102410003080A686E686A063A087E087606420649B
:10242000A068B0F5004F0BD12068006820F0400094
:10243000216808602068006840F4804021680860D6
:102440002068006800F04000402805D0206800683F
:1024500040F0400021680860E068B0F5006F2FD1BF
:10246000606810B1B9F1010F09D1206B00882168B3
:10247000C860206B801C2063E08E401EE0861BE05D
:102480002068806800F0020002280AD1206B0088D2
:102490002168C860206B801C2063E08E401EE086AF
:1024A0000AE0FFF7CFF9C01BA84201D3681C00B9AE
:1024B00015B94FF0030A4CE0E08E0028E0D12EE081
:1024C000606810B1B9F1010F09D1206B0078216863
:1024D0000873206B401C2063E08E401EE0861BE0EA
:1024E0002068806800F0020002280AD1206B007882
:1024F00021680873206B401C2063E08E401EE0863C
:102500000AE0FFF79FF9C01BA84201D3681C00B97D
:1025100015B94FF0030A1CE0E08E0028E0D13A46DE
:102520002946204602F07AFB08B120206065A068A9
:1025300050B900BF002000902068C068009020685B
:102540008068009000BF00BF606D08B14FF0010AC5
:1025500000BF012084F8510000BF002084F8500023
:1025600000BF504636E770477047000030B502465E
:102570000B4600BF92F83C00012801D1022030BD7B
:10258000012082F83C0000BF022082F83D00106864
:1025900044681068816824F0700418680443106867
:1025A0004460144D1068A84213D0134D1068A8421F
:1025B0000FD01068B0F1804F0BD0104D1068A842BA
:1025C00007D00F4D1068A84203D00E4D1068A842E6
:1025D00005D121F080015868014310688160012015
:1025E00082F83D0000BF002082F83C0000BF00BF21
:1025F000C5E70000002C0140003401400004004009
:1026000000080040000C004010B504460CB9012041
:1026100010BD94F83D0028B9002084F83C00204605
:1026200000F026F8022084F83D00211D206802F009
:1026300087FD012084F8460000BF84F83E00012198
:102640003F200155402001554120015500BF00BFEA
:10265000012084F8420043200155442001554520C3
:10266000015500BF012084F83D000020D0E70000A4
:1026700038B504461649206888420DD100BF154878
:10268000C06940F002001349C8610846C06900F003
:102690000200009000BF19E00F492068884215D160
:1026A00000BF0C48C06940F010000A49C8610846E4
:1026B000C06900F01000009000BF00BF002211466A
:1026C0003620FFF763F93620FFF750F938BD0000D8
:1026D000000400400010024000100040014691F844
:1026E0003D00012801D001207047022081F83D0003
:1026F0000868C06840F001000B68D860164B086895
:10270000984213D0154B086898420FD00868B0F172
:10271000804F0BD0124B0868984207D0114B0868C5
:10272000984203D0104B086898420CD10868806822
:1027300000F00702062A0CD00868006840F001008B
:102740000B68186005E00868006840F001000B683D
:1027500018600020C8E70000002C01400034014050
:102760000004004000080040000C00402DE9F0414A
:1027700004460D4600BF94F83C00012802D1022017
:10278000BDE8F081012084F83C0000BF022084F8FD
:102790003D002068866826F0770626F47F4620688C
:1027A00086602868502833D00CDC202850D004DC08
:1027B00000284BD0102851D149E0302849D040287A
:1027C0004CD139E060282DD0702807D0B0F5805F5B
:1027D00003D0B0F5005F41D10DE040E0D5E9021330
:1027E0006A68206802F00BFD2068866846F077066C
:1027F0002068866033E0D5E902136A68206802F039
:10280000FEFC2068806840F480402168886026E0F3
:10281000EA686968206802F0E3FD5021206802F050
:10282000F9FC1CE0EA686968206802F0ECFD6021B0
:10283000206802F0EFFC12E0EA686968206802F0A4
:10284000CFFD4021206802F0E5FC08E000BF00BF9A
:1028500000BF2968206802F0DDFC00E000BF00BF77
:10286000012084F83D0000BF002084F83C0000BF38
:1028700000BF85E7704710B5044620680069C0F3C3
:102880004000D8B12068C068C0F34000B0B16FF01C
:10289000020021680861012020772068806900F02B
:1028A000030018B12046FFF7E5FF05E0204600F0E1
:1028B000D9F8204600F089F90020207720680069C7
:1028C000C0F38000D8B12068C068C0F38000B0B108
:1028D0006FF0040021680861022020772068806979
:1028E00000F4407018B12046FFF7C4FF05E0204611
:1028F00000F0B8F8204600F068F900202077206842
:102900000069C0F3C000D8B12068C068C0F3C0003F
:10291000B0B16FF0080021680861042020772068BA
:10292000C06900F0030018B12046FFF7A3FF05E0DF
:10293000204600F097F8204600F047F90020207765
:1029400020680069C0F30010D8B12068C068C0F3E7
:102950000010B0B16FF010002168086108202077E6
:102960002068C06900F4407018B12046FFF782FF6C
:1029700005E0204600F076F8204600F026F9002019
:1029800020772068006900F0010058B12068C06815
:1029900000F0010030B16FF00100216808612046AD
:1029A00000F08EF920680069C0F3C01058B12068AB
:1029B000C068C0F3C01030B16FF0800021680861BA
:1029C0002046FFF7D0FD20680069C0F3801058B1A1
:1029D0002068C068C0F3801030B16FF040002168FB
:1029E0000861204600F078F920680069C0F34010C3
:1029F00058B12068C068C0F3401030B16FF02000BB
:102A0000216808612046FFF7AFFD10BD10B586B004
:102A10000446002002900390049005900E4920681F
:102A2000884216D100BF0D48806940F008000B496C
:102A300088610846806900F00800019000BF00BF6F
:102A40000120029002200390059002A90448FEF79D
:102A50004BFD06B010BD0000000400400010024015
:102A6000000C0140704770B504460D46164600BF85
:102A700094F83C00012801D1022070BD012084F8A7
:102A80003C0000BF36B1042E1BD0082E31D00C2ED6
:102A90005ED145E02946206802F0C6FB20688069C7
:102AA00040F00800216888612068806920F00400F7
:102AB00021688861206880692969084321688861E4
:102AC00047E02946206802F0E7FB2068806940F46F
:102AD0000060216888612068806920F48060216836
:102AE000886120688069296940EA0120216888613D
:102AF0002FE02946206802F00DFC2068C06940F0F4
:102B000008002168C8612068C06920F004002168BD
:102B1000C8612068C069296908432168C86118E054
:102B20002946206802F032FC2068C06940F4006049
:102B30002168C8612068C06920F480602168C8618C
:102B40002068C069296940EA01202168C86100E065
:102B500000BF00BF00BF002084F83C0000BF00BFE2
:102B60008BE710B504460CB9012010BD94F83D0068
:102B700028B9002084F83C00204600F025F8022007
:102B800084F83D00211D206802F0DAFA012084F863
:102B9000460000BF84F83E0001213F20015540203F
:102BA00001554120015500BF00BF012084F84200BB
:102BB00043200155442001554520015500BF012007
:102BC00084F83D000020D0E77047704770B5044698
:102BD0000D4615B994F83E000BE0042D02D13F20BC
:102BE000005D06E0082D02D14020005D01E041209B
:102BF000005D012801D0012070BD1DB9022084F8BC
:102C00003E000EE0042D03D102213F20015508E0D3
:102C1000082D03D102214020015502E0022141206C
:102C2000015501222946206802F0D8FA1F49206880
:102C3000884203D01E492068884201D1012000E06B
:102C4000002028B12068406C40F4004021684864AE
:102C500016492068884213D01549206888420FD051
:102C60002068B0F1804F0BD012492068884207D00D
:102C700011492068884203D01049206888420CD14D
:102C80002068806800F00706062E0CD020680068D7
:102C900040F001002168086005E02068006840F00D
:102CA0000100216808600020A6E70000002C014018
:102CB000003401400004004000080040000C0040C7
:102CC00010B5044603492068884201D1FEF7C0FDD3
:102CD00010BD000000140040704770472DE9F04718
:102CE0000446206805682068C668206847694FF078
:102CF0000008C14605F00F08B8F1000F0AD105F031
:102D0000200038B106F0200020B1204602F0ECFF90
:102D1000BDE8F087B8F1000F71D007F0010018B9D5
:102D200006F4907000286AD005F0010030B106F476
:102D3000807018B1E06B40F00100E06305F0040022
:102D400030B107F0010018B1E06B40F00200E06321
:102D500005F0020030B107F0010018B1E06B40F05F
:102D60000400E06305F0080048B106F0200010B947
:102D700007F0010018B1E06B40F00800E063E06B81
:102D800068B305F0200028B106F0200010B12046FD
:102D900002F0AAFF20684069C0F38019E06B00F0E0
:102DA000080010B9B9F1000F22D0204602F07CFFD4
:102DB0002068406900F04000B0B12068406920F010
:102DC000400021684861606B50B11848616B4863EE
:102DD000606BFEF7B5FA10B1606B416B88470CE091
:102DE0002046FFF77AFF08E02046FFF776FF04E071
:102DF0002046FFF772FF0020E06389E7FFE705F058
:102E0000800030B106F0800018B1204603F03AF897
:102E10007EE705F0400030B106F0400018B12046D2
:102E200002F052FF74E700BF72E70000955C0008F3
:102E300010B504460CB9012010BDA06900B100E036
:102E400000BF94F8390028B9002084F838002046E3
:102E500000F028F8242084F839002068C06820F4A5
:102E600000502168C860204602F08EFF206800698B
:102E700020F49040216808612068406920F02A0011
:102E8000216848612068C06840F400502168C8602B
:102E90000020E063202084F8390084F83A00002004
:102EA000CAE7000010B586B00446002002900390E7
:102EB000049005909B492068884237D100BF9A480A
:102EC000C06940F400209849C8610846C06900F410
:102ED0000020019000BF00BF00BF0846806940F09D
:102EE000100088610846806900F01000019000BF62
:102EF00000BF08150290022003900320059002A94C
:102F00008A48FEF7F1FA4FF4006002900020039027
:102F1000049002A98548FEF7E7FA00221146342002
:102F2000FEF734FD3420FEF721FDF9E080492068EA
:102F3000884243D100BF7C48C06940F480107A4980
:102F4000C8610846C06900F48010019000BF00BF4E
:102F500000BF0846806940F010008861084680691B
:102F600000F01000019000BF00BF00BF084680695C
:102F700040F0200088610846806900F02000019040
:102F800000BF00BF88140290022003900320059028
:102F900002A96648FEF7A8FA0420029000200390D8
:102FA000049002A96348FEF79FFA002211463520DB
:102FB000FEF7ECFC3520FEF7D9FCB1E05E49206855
:102FC000884237D100BF5848806940F48040564954
:102FD00088610846806900F48040019000BF00BF0E
:102FE00000BF0846806940F0040088610846806997
:102FF00000F00400019000BF00BF481502900220BD
:1030000003900320059002A94C48FEF76DFA4FF497
:103010008060029000200390049002A94748FEF7C8
:1030200063FA002211462520FEF7B0FC2520FEF7AA
:103030009DFC75E042492068884236D100BF3A487D
:10304000C06940F400303849C8610846C06900F4DE
:103050000030019000BF00BF00BF0846806940F00B
:10306000040088610846806900F00400019000BFF8
:1030700000BF04200290022003900320059002A9C3
:103080002E48FEF731FA08200290002003900490A9
:1030900002A92A48FEF728FA002211462620FEF748
:1030A00075FC2620FEF762FC3AE02649206888423B
:1030B00036D100BF1C48C06940F480201A49C8615D
:1030C0000846C06900F48020019000BF00BF00BF27
:1030D0000846806940F0080088610846806900F071
:1030E0000800019000BF00BF081502900220039065
:1030F0000320059002A91448FEF7F6F94FF400608A
:10310000029000200390049002A90F48FEF7ECF90A
:10311000002211462720FEF739FC2720FEF726FC67
:1031200006B010BD004C00400010024000100140ED
:1031300000500040001401400038014000080140E8
:103140000044004000480040000C014070472DE959
:10315000F84F04460E46174699464FF0000A94F879
:10316000390020285AD106B117B90120BDE8F88FDF
:1031700000BF94F83800012801D10220F6E70120B1
:1031800084F8380000BF0020E063212084F8390073
:10319000FEF758FB8246A784E784A068B0F5805FFD
:1031A00004D1206910B90025B04602E035464FF041
:1031B000000800BF002084F8380000BF1BE0534621
:1031C000002280212046CDF8009002F08BFE08B14D
:1031D0000320CBE745B9B8F80000C0F30800216828
:1031E000486008F1020803E02878216848606D1CF7
:1031F000E08C401EE084E08C0028E0D153460022A1
:1032000040212046CDF8009002F06CFE08B103206A
:10321000ACE7202084F839000020A7E70220A5E7CA
:10322000704700BFFEE7000010B5042006490861A2
:103230004FF4FA7006F0B2FD0420034948614FF4E0
:10324000FA7006F0ABFD10BD001001400EB5002075
:103250000090019002901248124908600021114824
:103260008160017301754FF46021C16100200D4937
:10327000486001210B480161FDF752FF08B1FDF7DD
:1032800021FE0A2000900120019000200290694652
:103290000448FDF795FE08B1FDF714FE0EBD0000D1
:1032A000002401405003002010B50548054908607E
:1032B0000846FEF71DF808B1FDF704FE10BD00003A
:1032C000003002401C00002010B503490348FDF700
:1032D000FAFD0349087010BD3D00002028000020C1
:1032E0003C00002000B5B1B01C222A492AA8FCF7F6
:1032F00099FF00212AA806F0EFFD274908601C224B
:1033000024491C3123A8FCF78DFF002123A806F0D7
:10331000E3FD224908601C221E4938311CA8FCF735
:1033200081FF00211CA806F0D7FD1D4908601C2262
:103330001849543115A8FCF775FF002115A806F0AF
:10334000CBFD184908601C22124970310EA8FCF709
:1033500069FF00210EA806F0BFFD134908601C227A
:103360000C498C3107A8FCF75DFF002107A806F087
:10337000B3FD0E4908601C220649A8316846FCF7D7
:1033800051FF0021684606F0A7FD0949086031B0E9
:1033900000BD000050C9000800000020040000200B
:1033A000080000200C000020100000201400002065
:1033B0001800002000B585B0002001900290039015
:1033C000049000BF4C48806940F020004A49886161
:1033D0000846806900F02000009000BF00BF00BFD9
:1033E0000846806940F0100088610846806900F056
:1033F0001000009000BF00BF00BF0846806940F089
:10340000040088610846806900F00400009000BF55
:1034100000BF00BF0846806940F008008861084688
:10342000806900F00800009000BF00BF0022042166
:103430003248FEF701FA002240F612013048FEF74A
:10344000FBF900224BF2C4312E48FEF7F5F90420B7
:10345000019001200290002003900320049001A914
:103460002648FEF741F801200190002002900390C9
:1034700001A92348FEF738F840F602000190012028
:103480000290002003900320049001A91C48FEF73D
:103490002BF81020019001200290002003900220C0
:1034A000049001A91648FEF71FF84BF24430019032
:1034B00001200290002003900320049001A91148EC
:1034C000FEF712F84FF48040019000200290012096
:1034D000039001A90B48FEF707F880200190112006
:1034E0000290012003900320049001A90548FDF7F4
:1034F000FBFF05B000BD00000010024000100140BD
:1035000000080140000C014010B50F480F49086049
:103510004FF48270486000210C488160C160022134
:103520000161002141614FF4007181613821C16165
:1035300000210162416281620A21C162FEF79AFEA6
:1035400008B1FDF7BFFC10BD003001408003002032
:1035500000B58DB0002009900A900B900C90079058
:1035600008901C216846FCF776FE20482049086038
:103570002320486000211E48816044F61F61C1601D
:10358000002101618161FFF73FF808B1FDF79AFC66
:103590004FF48050099009A91548FFF7E7F808B1E2
:1035A000FDF790FC1248FFF7DCFA08B1FDF78AFC42
:1035B00000200790089007A90D48FEF7D7FF08B133
:1035C000FDF780FC602000900020019002900490A4
:1035D000082269460648FFF746FA08B1FDF772FC73
:1035E0000348FFF713FA0DB000BD000000040040CF
:1035F000D80300201CB50020009001900E480F4910
:1036000008604720486000210C48816042F20F7139
:10361000C16000218161FEF7F7FF08B1FDF752FCA0
:1036200000200090019069460448FEF79FFF08B112
:10363000FDF748FC1CBD00000010004020040020E5
:1036400010B50B480B4908604FF4E1304860002189
:1036500008488160C16001610C21416100218161E4
:10366000C161FFF7E5FB08B1FDF72CFC10BD0000C0
:10367000004C00406804002010B50B480B4908605E
:103680004FF4E1304860002108488160C160016169
:103690000C21416100218161C161FFF7C9FB08B1C3
:1036A000FDF710FC10BD000000500040A8040020F1
:1036B00010B50B480B4908604FF4165048600021C4
:1036C00008488160C16001610C2141610021816174
:1036D000C161FFF7ADFB08B1FDF7F4FB10BD0000C1
:1036E00000380140E804002010B50B480B49086081
:1036F0004FF416504860002108488160C1600161A4
:103700000C21416100218161C161FFF791FB08B18A
:10371000FDF7D8FB10BD0000004400402805002044
:1037200010B50B480B4908604FF416504860002153
:1037300008488160C16001610C2141610021816103
:10374000C161FFF775FB08B1FDF7BCFB10BD0000C0
:1037500000480040680500202DE9F04105460C4670
:10376000164606EBC6100D4901EB4000C71C60066B
:10377000000E06EBC611094A02EB4101887008E011
:10378000394628B200F028F8681C85B2BF1C601EBC
:1037900084B2002CF4DCBDE8F0810000E8130020C6
:1037A0002DE9F04104460D46164606EBC6100949C0
:1037B00001EB4000C71D08E0394620B200F04CF98B
:1037C000601C84B2BF1C681E85B2002DF4DCBDE80D
:1037D000F0810000F21800202DE9F04704460D4664
:1037E0002E464FF00009712C71D030DC2C2C6FD09C
:1037F00014DC262C70D008DC092C6BD2DFE804F036
:1038000053595A606A6A616A6B00A4F1270005285F
:10381000F3D2DFE800F067686E6F7600642C6FD03B
:1038200008DCA4F12D000528E7D2DFE800F073776B
:1038300078797F006A2C6ED004DC652C7FD0662CF2
:1038400048D183E06E2C68D0702CF9D197E0852C9C
:1038500074D00FDCA4F172001328CED2DFE800F0A0
:10386000969C9DA3EFEFA4AAABB1EFEFEFEFB2EF01
:10387000B9EFC000CB2C70D00CDCC82C6ED004DCAF
:10388000862C6CD0872CDBD1B4E0C92C68D0CA2C34
:10389000D6D1B7E0A4F1CC000528AED2DFE800F025
:1038A000B9BFC0C6C7006A480168304606F08CFF41
:1038B000CAE0C9E066484168304606F085FFC3E0CB
:1038C000C2E063488168304606F08FFFBCE05CE0F0
:1038D00018E001E0B3E0B7E05D48C168304606F0AB
:1038E00073FFB1E0B0E05A480169304606F06CFF62
:1038F000AAE0A9E056484169304606F065FFA3E01A
:1039000015E0A1E05248D0E906733A46304606F089
:1039100047FF99E098E024E011E029E094E093E08B
:103920004B48016A304606F04FFF8DE08CE0494875
:10393000008801B2304606F053FF85E058E0454864
:10394000408801B2304606F04BFF7DE04148808858
:1039500001B2304606F044FF76E059E04BE048E023
:103960004FE03C48C08801B2304606F039FF6BE0BA
:103970003848008901B2304606F032FF64E035482D
:10398000C168304606F020FF5EE05DE03148016925
:10399000304606F019FF57E056E02E4841693046A0
:1039A00006F012FF50E04FE02A488169304606F0E9
:1039B0000BFF49E048E02748C169304606F004FFA4
:1039C00042E041E02348008C01B2304606F008FF97
:1039D0003AE02048408C01B2304606F001FF33E067
:1039E0001B48D0E906733A46304606F0D9FE2BE074
:1039F0002AE029E028E01748016B304606F0E4FE93
:103A000022E021E01348416B304606F0DDFE1BE06A
:103A10001AE01048816B304606F0D6FE14E013E041
:103A20000C48C16B304606F0CFFE0DE00CE00948B3
:103A3000B0F8400001B2304606F0D2FE04E00021AA
:103A4000304606F0CDFE00BF00BF4846BDE8F08717
:103A5000701300205012002070B504460D462E460B
:103A60007A2C7BD014DC6E2C49D008DC642C22D05C
:103A7000652C29D0662C30D06A2C6ED136E0702CA3
:103A800046D0722C4DD0742C54D0782CF5D15BE0FC
:103A9000CA2C75D008DC802C69D0822C75D0842C7F
:103AA0007CD0C82CE9D184E0CC2C6CD0CE2C6BD04F
:103AB000D02CE2D1A1E0304605F0C7FE5549088080
:103AC000C92081F84800A3E0304605F0BEFE514908
:103AD0004880CB2081F848009AE0304605F0B5FEDA
:103AE0004C498880662081F8480091E0304605F016
:103AF000ACFE4849C880CA2081F8480088E03046BA
:103B000005F0A3FE434908816E2081F848007FE05C
:103B1000304605F08CFE3F49C860702081F84800AF
:103B200076E0304605F083FE3A490861722081F85C
:103B300048006DE0304605F07AFE36494861742051
:103B400081F8480064E009E0304605F070FE314934
:103B50008861782081F848005AE058E0304605F046
:103B600066FE2C49C8617A2081F8480050E0304652
:103B700005F06BFE27490884802081F8480047E063
:103B800020E002E00AE026E02EE0304605F05DFE8F
:103B900020494884822081F8480039E0304605F009
:103BA0002FFE1C4AC2E90A018420114681F8480010
:103BB0002EE0304605F03BFE16490863FF2081F8F1
:103BC000480025E0304605F032FE12494863FF20E8
:103BD00081F848001CE0304605F029FE0D49886355
:103BE000FF2081F8480013E0304605F020FE094927
:103BF000C863FF2081F848000AE0304605F025FE42
:103C00000449A1F84000FF2081F8480000E000BF0F
:103C100000BF70BD5012002000BFFEE710B5044683
:103C200004EBC410114901EB400090F80001104969
:103C300091F9001088420ED104EBC4100B4901EB3E
:103C4000400090F8000130B100200949087020467A
:103C500000F0D4F809E004EBC410044901EB400083
:103C600090F8000140B20249087010BDF21800201F
:103C70006600002070B5044604EBC4105C4911F8DE
:103C800010005C49498888425BD104EBC412584B50
:103C900003EB420292F8001104EBC41203EB420062
:103CA000FCF7A2FF00284CD104EBC411504A02EBF0
:103CB0004101881C05F0C9FD054604EBC4104C49C0
:103CC00001EB40004078032806D0042805D00628E0
:103CD00015D0102832D11FE000BF04EBC411444AB4
:103CE00002EB4101081D05F0B0FD0646B1B2A8B2D5
:103CF0002246FFF731FD204607F0DAF81FE004EB1B
:103D0000C4103B4A02EB4000011D2846FFF7A4FE09
:103D1000204607F0E1FE12E004EBC411344A02EB46
:103D20004101081D05F091FD0646B1B2A8B2224638
:103D3000FFF736FD204607F0CFFE00E000BF00BFD2
:103D40004CE004EBC4102A4911F81000F0BB04EB5E
:103D5000C41001EB40004078032806D004EBC410E7
:103D600001EB40004078042838D104EBC411204A0C
:103D700002EB4101881C05F068FD65282ED104EB9B
:103D8000C4111B4A02EB4101081D05F05EFD01282C
:103D900024D104EBC412164B03EB420292F800113B
:103DA00004EBC41203EB4200FCF71EFF70B904EBF6
:103DB000C410114901EB4000C51C022004EBC411E2
:103DC0000D4A02EB41018870294600E006E06520BB
:103DD000FFF702FD204607F06BF800BF002004EB60
:103DE000C411034A02EB410181F8000170BD0000DB
:103DF000F218002050120020E813002010B50446ED
:103E00001B48008802282ED104EBC410194B03EB89
:103E1000400090F8002104EBC41003EB4001164869
:103E200006F0A9FB04EBC411124A02EB410181F830
:103E3000000104EBC410114601EB400090F80001B2
:103E4000A0B104EBC411134603EB410191F800212A
:103E500004EBC41103EB41000749FCF7E3F92046EA
:103E6000FFF708FF02E02046FFF704FF10BD000047
:103E700050120020F2180020FC1D002010B504464E
:103E80001B48008802282ED104EBC410194B03EB09
:103E9000400090F8002104EBC41003EB40011648E9
:103EA00006F03CFD04EBC411124A02EB410181F81B
:103EB000000104EBC410114601EB400090F8000132
:103EC000A0B104EBC411134603EB410191F80021AA
:103ED00004EBC41103EB41000749FCF7A3F92046AA
:103EE00001F084FB02E0204601F080FB10BD0000E1
:103EF00050120020E8130020FC1D00207047000035
:103F000008B508490968C9084FF47A72B1FBF2F1A3
:103F10004143009100BF00BF00994A1E0092002952
:103F2000F9D108BD9000002070B500240122802145
:103F30002F48FDF781FC002546E0002000E0401CF2
:103F40006428FCDB002240212948FDF775FC002095
:103F500000E0401C6428FCDB002000E0401C6428DA
:103F6000FCDB002000E0401C6428FCDB002000E0BB
:103F7000401C6428FCDB002000E0401C6428FCDBC3
:103F8000012240211A48FDF757FC002000E0401CA8
:103F90006428FCDB002000E0401C6428FCDB600699
:103FA000040E80211248FDF73FFC08B1601CC4B22A
:103FB000002000E0401C6428FCDB002000E0401CE6
:103FC0006428FCDB681CC5B2082DB6DB002240214A
:103FD0000748FDF731FC002000E0401C6428FCDBB2
:103FE000002000E0401C6428FCDB204670BD00007F
:103FF000000C01402DE9F04104460D4616462F46BF
:1040000000224FF480510E48FDF716FC0320FCF708
:10401000AFFFC4F30720FCF7ABFFE0B2FCF7A8FF4B
:1040200003E0FCF783FF07F8010B301EA6F1010641
:10403000F7D1012211030248FDF7FEFBBDE8F08134
:10404000000C014070B506460C46154600F06CFFAA
:10405000A22000F0AFFE1648007808B9002070BD1D
:10406000304600F0A7FE1248007808B90020F6E7B5
:1040700000F05AFFA32000F09DFE0D48007808B91B
:104080000020ECE70BE0FFF74FFF04F8010B1DB138
:104090000020FCF759FD02E00120FCF755FD281E29
:1040A000A5F10101CDB2EED100F098FF0120D6E7D5
:1040B000800000201CB5072269460220FFF7C2FFDE
:1040C0009DF8000000F07F008DF800009DF80100D1
:1040D00000F07F008DF801009DF8020000F03F0025
:1040E0008DF802009DF8030000F03F008DF80300FA
:1040F0009DF8040000F007008DF804009DF805000D
:1041000000F01F008DF805009DF8000000F00F0082
:104110009DF80010091101EB810100EB41002249DB
:1041200088719DF8010000F00F009DF80110091141
:1041300001EB810100EB41001B4948719DF8020031
:1041400000F00F009DF80210091101EB810100EB56
:104150004100154908719DF8030000F00F009DF81B
:104160000310091101EB810100EB41000E49887039
:104170009DF8050000F00F009DF80510091101EBF6
:10418000810100EB4100084948709DF8060000F0ED
:104190000F009DF80610091101EB810100EB4100B1
:1041A000014908701CBD00005800002030B5584976
:1041B00051F82010096801F02001002922D00328BD
:1041C00021D0534951F820104968CAB200EBC01100
:1041D000504B03EB410191F8003100EBC0114D4C05
:1041E00004EB410191F80011491C00EBC014494D4A
:1041F00005EB440484F8001100EBC0112C4604EBDD
:104200004101CA5482E0424951F820104968CAB2BB
:1042100000EBC0113F4B03EB410191F8003100EB83
:10422000C0113C4C04EB410191F80011491C00EB1A
:10423000C014384D05EB440484F8001100EBC011A4
:104240002C4604EB4101CA5400EBC011224602EB9C
:10425000410191F80011042958DD00EBC01102EB77
:10426000410200EBC011234603EB410191F800111C
:10427000491E515C4B2949D100EBC0111A4602EB93
:10428000410200EBC01103EB410191F80011891EBE
:10429000515C4F293AD100EBC0111A4602EB4102A2
:1042A00000EBC01103EB410191F80011091F515CB3
:1042B00003292BD100EBC0111A4602EB410200EB9F
:1042C000C01103EB410191F80011491F515CA52970
:1042D0001CD100EBC0111A4602EB410200EBC011E9
:1042E00003EB410191F80011891F515C5A290DD14E
:1042F00000EBC0111A4602EB410191F80011891F31
:1043000000EBC01203EB420282F8001130BD000046
:104310006C000020F21800202DE9F04705462878AF
:10432000832870D1A878697840EA012668792979CC
:1043300040EA0124281D03F0D5FC8046281D03F027
:10434000D1FC8146FCF7EBF9074641F20841701AAF
:104350008E4273D02CDCB6F5985F70D014DC41F23D
:104360000621A6EB01008E425BD008DCB6F5905F1B
:1043700042D0A6F590500238002843D144E00A28E4
:104380005ED00C28F9D164E041F21031701A8E42EF
:1043900077D008DCA6F59050A0F58170002866D093
:1043A0000428EAD170E0F0286CD0F428E5D18BE045
:1043B000B0F58D7F67D00DDCFA286ED004DC0A28BA
:1043C0006CD0F828D9D19AE0FC2868D0B0F58C7F61
:1043D000D3D1ABE0B0F5957F73D006DCB0F58E7F1E
:1043E00070D0B0F5947FC8D1AFE0B0F5967F6AD0B9
:1043F000B0F5FC7FC1D1B7E0654804816E20644907
:1044000081F84800BAE0C0E02046FCF788F9814610
:104410006049FBF7B5FF5E494861742081F84800A8
:10442000ACE02046FCF77BF981465A49FBF7A8FF30
:104430005749C860702081F848009FE04DE00FE0C8
:104440002046FCF76CF952490861722081F8480057
:1044500094E04F48048480204D4981F848008DE065
:104460004B48848066204A4981F8480086E04A49E2
:104470003846FBF785FF4649C8617A2081F8480035
:104480007CE00DE014E056E02046FCF748F9404996
:104490008861782081F8480070E037E026E03EE04F
:1044A0003B48A0F84040FF20394981F8480065E0CA
:1044B0004046FCF72BF936490863FF2081F8480095
:1044C0005CE047E03CE04AE04046FCF71FF9304939
:1044D0004863FF2081F8480050E04046FCF716F999
:1044E0002B498863FF2081F8480047E04046FCF7ED
:1044F0000DF92749C863FF2081F848003EE0601CA1
:1045000023490880C92081F8480037E0204602F09E
:1045100089FB1F49C880CA2081F848002EE01C484A
:104520004480CB201A4981F8480027E01B490C70D1
:104530000120C87122E019494C700120C8711DE0AA
:1045400016498C700120C87118E014490C710120C3
:10455000C87113E011494C710120C8710EE00F4978
:104560008C710120C87109E00CB9012000E0002025
:1045700007494884822081F8480000BF00BF0448F2
:1045800006F048F80120BDE8F0870020FBE70000B6
:104590005012002000007A440000C8425800002059
:1045A00070B50546FF2200210A2000F09BF9044661
:1045B0000CB1204670BD01221021284600F052F9AE
:1045C0000020F7E770B50546FF220021092000F022
:1045D00089F904460CB1204670BD012210212846FD
:1045E00000F040F90020F7E77CB5002000F04CFB1C
:1045F000002604E0FF2000F025FB701C86B2642E2C
:10460000F8DB002500BF95220021084600F06AF97A
:104610000446681C85B2012C01D0C82DF3DBC82DDF
:1046200001D101207CBD87224FF4D571082000F014
:1046300097F90446052C4CD10120604908700122ED
:1046400010215F48FDF7F8F8FF2000F0FBFA002585
:1046500000BF00221146372000F044F90446012C27
:1046600001D02046DEE700221146292000F03AF969
:104670000446681C85B214B1B5F5C87FE9DBB5F511
:10468000C87F15D1002500BF00221146012000F08F
:1046900029F90446681C85B214B1B5F5C87FF3DB6F
:1046A000B5F5C87F01D10120BCE70020434908705F
:1046B000012000F0E9FAFF2000F0C4FAFF224FF4D5
:1046C0000071102000F00EF90446002C74D0204632
:1046D000A8E7012C70D1FF2000F0B4FA8DF800009B
:1046E000FF2000F0AFFA8DF80100FF2000F0AAFAD9
:1046F0008DF80200FF2000F0A5FA8DF803000122DA
:1047000010212F48FDF798F8FF2000F09BFA9DF844
:104710000200012850D19DF80300AA284CD10025A1
:1047200000BF00221146372000F0DCF80446012CBF
:1047300001D0204676E700224FF08041292000F08A
:10474000D1F80446C82D01DD20466BE7002CE8D1E6
:10475000002211463A2000F003F904460CB120462D
:1047600060E7FF2000F06EFA8DF80000FF2000F0F7
:1047700069FA8DF80100FF2000F064FA8DF802005C
:10478000FF2000F05FFA8DF80300012210210C4891
:10479000FDF752F8FF2000F055FA9DF8000000F0F8
:1047A000400018B104200549087002E002200349C6
:1047B0000870012000F068FA204633E781000020ED
:1047C000000801402DE9F04106460D46144601203F
:1047D00000F05AFA00223146122000F083F8074612
:1047E00017B13846BDE8F08100BF00224FF40071D8
:1047F000284600F037F800B105E005F50075601EA9
:10480000C0B2041EF1D100BF002211460C2000F0FE
:1048100069F8012210210548FDF70EF8FF2000F08D
:1048200011FA0CB12046DDE70020DBE7000801406B
:1048300070B505460E46012000F026FA00222946F2
:10484000112000F04FF804460CB1204670BD012243
:104850005102304600F006F804460CB12046F5E758
:104860000020F3E72DE9F041044688461646002271
:1048700010211B48FCF7E0FF002700BFFF2000F0DD
:10488000E1F90546781C87B2B7F5FA6F07DD01221A
:1048900010211348FCF7D0FF0120BDE8F081FE2D68
:1048A000ECD104E0FF2000F0CDF92070641CB8F1D9
:1048B0000000A8F101011FFA81F8F3D1FF2000F0F8
:1048C000C1F9FF2000F0BEF9012E07D1012210210D
:1048D0000348FCF7B1FFFF2000F0B4F90020DCE74B
:1048E000000801402DE9F04105460C461646002718
:1048F000FF2000F0A7F9002210211848FCF79CFFC8
:1049000045F0400000F09EF9200E00F09BF9C4F342
:10491000074000F097F9C4F3072000F093F9E0B2E4
:1049200000F090F9304600F08DF904E0781CC7B231
:10493000C82F00DD05E0FF2000F084F98046FF2845
:10494000F4D000BF012210210448FCF775FFFF20BE
:1049500000F078F94046BDE8F08100000008014011
:104960002DE9F04105460C4616460027FF2000F0D1
:1049700069F9002210211448FCF75EFF45F0400061
:1049800000F060F9200E00F05DF9C4F3074000F07C
:1049900059F9C4F3072000F055F9E0B200F052F9DC
:1049A000304600F04FF904E0781CC7B2C82F00DD94
:1049B00005E0FF2000F046F98046FF28F4D000BF54
:1049C0004046BDE8F08100000008014070B50025B8
:1049D00000BFFF2000F036F904464FF6FE70854216
:1049E00001D1012070BDFF2CF3D10020FAE70000B7
:1049F0002DE9F04107460E461546012000F044F926
:104A00003448007828B1002229461720FFF76AFFB2
:104A10000446002239461920FFF764FF044614B10A
:104A20002046BDE8F081002210212B48FCF704FF4E
:104A3000FF2000F007F9FF2000F004F900BFFC2080
:104A400000F000F94FF0000807E016F8010B00F045
:104A5000F9F808F101001FFA80F8B8F5007FF4DBDF
:104A6000FF2000F0EFF8FF2000F0ECF8FF2000F04E
:104A7000E9F8044604F01F00052806D001221021A1
:104A80001548FCF7D9FE2046CBE7FFF79FFF01282A
:104A900006D1012210211048FCF7CEFE0120C0E70C
:104AA000681EC0B2051ECAD1FD2000F0CBF8044636
:104AB00004B9FE25FFF78AFF08B100BFFEE7012217
:104AC00010210548FCF7B8FEFF2000F0BBF828468F
:104AD000A7E7000081000020000801402DE9F04117
:104AE00080460C46012000F0CFF8002241461820F5
:104AF000FFF7F8FE054615B12846BDE8F081002213
:104B000010212648FCF798FEFF2000F09BF8FF20BC
:104B100000F098F8FF2000F095F8FE2000F092F8E1
:104B2000002605E014F8010B00F08CF8701C86B22A
:104B3000B6F5007FF6DBFF2000F084F8FF2000F0E0
:104B400081F8FF2000F07EF8054605F01F000528DB
:104B500006D0012210211148FCF76EFE2846CCE752
:104B600000270CE0781C87B24FF6FE70874206DD06
:104B7000012210210948FCF75FFE0120BDE7FF205C
:104B800000F060F80028EDD0012210210348FCF766
:104B900053FEFF2000F056F80020AEE70008014069
:104BA00010B51A491A48FCF78EF910BB01221749B3
:104BB000184803F00DFE18490870084600780D28C3
:104BC0001AD100221146114803F0E0FA1249087088
:104BD0000846007870B901220C49002003F0F8FD66
:104BE0000D490870012209490A4803F0F1FD0A49FC
:104BF000087008E0002010BD0748007808B10020C8
:104C0000F9E70120F7E70020F5E700004400002065
:104C100028000020F005002048000020F8B50446D8
:104C20000D4616462B46002280212046009600F0B5
:104C300055F828B1606D40F0200060650320F8BD94
:104C40000020FCE77CB504468DF800404FF47A73F1
:104C5000012269460848FDF7AFFB00BF064800681F
:104C6000806800F001000028F8D1044800F008F83E
:104C7000C5B228467CBD0000800300200030014002
:104C80000146C86880B2704710B504461148124901
:104C900008604FF48270486000210F488160C16055
:104CA000016141614FF48021816114B93821C161F2
:104CB00002E018210848C1610021074801624162F1
:104CC00081620A21C162FDF7D5FA08B1FCF7FAF852
:104CD00010BD000000300140800300202DE9F84F96
:104CE00004460D4690461E46DDF82890FCF7AAFDC6
:104CF000A0EB0900371AFCF7A5FD82462C48006896
:104D0000C0F3CB307843009045E0701C002842D0BF
:104D1000FCF798FDA0EB0A00B84200D2A7BB2068C0
:104D2000406820F0E000216848606068B0F5827F4C
:104D30000DD1A068B0F5004F03D0A068B0F5806F2A
:104D400005D12068006820F0400021680860A06A52
:104D5000B0F5005F0DD100BF2068006820F400505E
:104D6000216808602068006840F4005021680860ED
:104D700000BF012084F8510000BF002084F85000DB
:104D800000BF0320BDE8F88FFFE7009800B90027B7
:104D90000098401E0090206880682840A84201D1F9
:104DA000012000E000204045AFD10020EAE70000EC
:104DB0009000002070B50446002534E004F0800027
:104DC00028B1012280213D48FCF736FD04E0002295
:104DD00080213A48FCF730FD6006040E0122402194
:104DE0003648FCF729FD002000E0401C6428FCDB6D
:104DF000002000E0401C6428FCDB002000E0401C98
:104E00006428FCDB002000E0401C6428FCDB002060
:104E100000E0401C6428FCDB002240212748FCF70E
:104E20000BFD681CC5B2082DC8DB002000E0401C4B
:104E30006428FCDB002000E0401C6428FCDB01222D
:104E400080211E48FCF7F8FC002000E0401C64288C
:104E5000FCDB002000E0401C6428FCDB0122402138
:104E60001648FCF7E9FC002000E0401C6428FCDB4D
:104E7000002000E0401C6428FCDB002000E0401C17
:104E80006428FCDB80210D48FCF7CEFC18B1002023
:104E90000B49087002E001200949087000224021F6
:104EA0000648FCF7C9FC002000E0401C6428FCDB3D
:104EB000002000E0401C6428FCDB70BD000C0140B9
:104EC0008000002000BF00F0E7FA012004F066FF38
:104ED000F9E700BF00F0F2FA012004F05FFFF9E704
:104EE00000BF00F001FB012004F058FFF9E700BF0C
:104EF00000F044FB012004F051FFF9E700BF00F08F
:104F000051FB012004F04AFFF9E700BF00F056FB17
:104F1000012004F043FFF9E700BF00F061FB01202E
:104F200004F03CFFF9E7000010B5012280212A4877
:104F3000FCF782FC002000E0401C6428FCDB01221E
:104F400040212548FCF778FC002000E0401C642844
:104F5000FCDB002000E0401C6428FCDB002000E0BB
:104F6000401C6428FCDB002000E0401C6428FCDBC3
:104F7000002000E0401C6428FCDB00228021164851
:104F8000FCF75AFC002000E0401C6428FCDB0020F9
:104F900000E0401C6428FCDB002000E0401C64288A
:104FA000FCDB002000E0401C6428FCDB002000E06B
:104FB000401C6428FCDB002240210748FCF73CFC35
:104FC000002000E0401C6428FCDB002000E0401CC6
:104FD0006428FCDB10BD0000000C014010B500226D
:104FE00080212048FCF728FC002000E0401C6428B9
:104FF000FCDB012240211B48FCF71EFC002000E0E6
:10500000401C6428FCDB002000E0401C6428FCDB22
:10501000002000E0401C6428FCDB002000E0401C75
:105020006428FCDB002000E0401C6428FCDB01223B
:1050300080210C48FCF700FC002000E0401C6428A4
:10504000FCDB002000E0401C6428FCDB002000E0CA
:10505000401C6428FCDB002000E0401C6428FCDBD2
:1050600010BD0000000C014010B500BF502080F3BF
:105070001188BFF34F8FBFF36F8F00BF07F02EFA79
:1050800018B14FF080500449086000BF002080F341
:10509000118800BF10BD000004ED00E000B595B020
:1050A00028210BA8FBF7D7F8142106A8FBF7D3F8A3
:1050B00018216846FBF7CFF801200B9000040C90F4
:1050C00000200D9001200F9002201290C103139137
:1050D0004FF4E01114910BA8FCF79AFE08B1FBF70E
:1050E000F1FE0F20069002200790002008904FF458
:1050F0008060099000200A90022106A8FCF730FD8C
:1051000008B1FBF7DFFE02200090800302906846A2
:10511000FCF78EFC08B1FBF7D5FE15B000BD70475B
:1051200010B50248FDF7A7FB10BD000020040020C9
:1051300010B50248FDF79FFB10BD0000A805002038
:1051400010B50268204B98420ED0204B98420BD0ED
:10515000B0F1804F08D01E4B984205D01D4B9842AD
:1051600002D01D4B984203D122F070024B681A43C3
:10517000154B98420ED0154B98420BD0B0F1804F92
:1051800008D0134B984205D0124B984202D0124BD4
:10519000984203D122F44072CB681A4322F0800374
:1051A0004C6943EA040202608B68C3620B68836245
:1051B000054B984202D0054B984201D10B6903631D
:1051C0000123436110BD0000002C01400034014068
:1051D0000004004000080040000C004030B501F021
:1051E0001F05012404FA05F3046A9C430462046A5F
:1051F00001F01F0502FA05F52C43046230BD30B5FD
:105200000C46816821F47F4142EA03252543294366
:10521000816030BD0A46816821F0700142F00703C9
:10522000194381607047000030B5056A25F001051B
:105230000562026A4368846924F0700424F0030460
:105240000D682C4322F002028D682A43104DA842BB
:1052500000D103E00F4DA84206D100BF22F00802A2
:10526000CD682A4322F00402094DA84202D0094D1C
:10527000A84207D123F4807323F400734D692B43B4
:105280008D692B43436084614D684563026230BD84
:10529000002C01400034014030B5056A25F01005AE
:1052A0000562026A4368846924F4E04424F440748B
:1052B0000D6844EA052422F020028D6842EA0512B6
:1052C000124DA84200D103E0114DA84207D100BF02
:1052D00022F08002CD6842EA051222F040020B4D16
:1052E000A84202D00A4DA84209D123F4806323F4D6
:1052F00000634D6943EA85038D6943EA8503436092
:1053000084614D688563026230BD0000002C01405D
:105310000034014030B5056A25F480750562026AE3
:105320004368C46924F0700424F003040D682C431E
:1053300022F400728D6842EA0522124DA84200D183
:1053400003E0114DA84207D100BF22F40062CD68EE
:1053500042EA052222F480620A4DA84202D00A4D98
:10536000A84209D123F4805323F400534D6943EA42
:1053700005138D6943EA05134360C4614D68C56335
:10538000026230BD002C01400034014030B5056A96
:1053900025F480550562036A4468C26922F4E0423C
:1053A00022F440720D6842EA052223F400538D680E
:1053B00043EA0533084DA84202D0084DA84204D163
:1053C00024F480444D6944EA85144460C2614D6808
:1053D0000564036230BD0000002C01400034014030
:1053E00030B50B461446026A056A25F001050562D0
:1053F000816921F0F00141EA041122F00A021A4306
:105400008161026230BD30B50B461446056A25F055
:10541000100505628169026A21F4704141EA043194
:1054200022F0A00242EA03128161026230BD000054
:10543000A1B120B1012807D002280DD108E04FF416
:105440000062134B1A6008E00222114B1A6004E05C
:105450000422104B1A6000E000BF17E020B10128C1
:1054600008D0022810D10AE04FF40062084B1B1D3F
:105470001A600AE00222064B1B1D1A6005E0042296
:10548000044B1B1D1A6000E000BF00BF7047000006
:1054900010080140100C014041F2883004F07EFCFD
:1054A00000BF02F08DFB02F073F80349B1F8400031
:1054B00005F04AFDF5E700005012002000200849E1
:1054C000C871FEF7F7FD074805F064FC00BF05F062
:1054D00065FF044806F0ACFAFDF7A6FEF7E700000A
:1054E00058000020501200201D480068C06840F09D
:1054F00020001B490968C8601A480068C06840F06D
:10550000200018490968C86017480068C06840F062
:10551000200015490968C86014480068C06840F058
:10552000200012490968C86011480068C06840F04E
:1055300020000F490968C86006F072FA00BF0D48E4
:1055400005F05EFC0B48818C0B4805F0DFFB094839
:10555000818C094806F094FA0A2004F01FFCEEE75B
:10556000E8040020280500206805002068040020C9
:10557000A8040020701300205012002006F050FAFA
:105580000749C88801F02CFB00BF0220FEF746FB4C
:10559000034804F0D0FC0A2004F000FCF5E700000A
:1055A0005012002006F03CFA00BF05F0DFF804F0CE
:1055B000D7F8052004F0F2FBF7E7000006F030FA18
:1055C00008210648FDF702FB00BF05F003FD01F0CE
:1055D000BFFF642004F0E2FBF7E70000D8030020DF
:1055E00000BF642004F0DAFBFBE7000010B50446BE
:1055F00001212046FFF71CFF052C59D2DFE804F0FB
:1056000003142536470004EBC4102D4B03EB400078
:1056100090F8002104EBC41003EB40014FF47A73BF
:105620002848FDF794FD44E004EBC410244B03EB41
:10563000400090F8002104EBC41003EB40014FF44C
:105640007A732148FDF783FD33E004EBC4101C4B53
:1056500003EB400090F8002104EBC41003EB400181
:105660004FF47A731948FDF772FD22E004EBC41081
:10567000134B03EB400090F8002104EBC41003EB44
:1056800040014FF47A731248FDF761FD11E004EB1D
:10569000C4100B4B03EB400090F8002104EBC41046
:1056A00003EB40014FF47A730A48FDF750FD00E028
:1056B00000BF00BF00212046FFF7BAFE10BD00006A
:1056C000E8130020E80400202805002068050020D9
:1056D00068040020A80400202DE9F04104460D468E
:1056E0001646002004EBC411554A02EB410181F833
:1056F0000001012104EBC41002EB400090F80021EE
:1057000004EBC4104E4B03EB400090F80001401C2A
:1057100004EBC413DFF828C10CEB430383F800014A
:1057200004EBC410634603EB40008154032104EBF7
:10573000C4101A4602EB400090F8002104EBC4109C
:1057400003EB400090F80001401C04EBC4130CEB89
:10575000430383F8000104EBC410634603EB4000ED
:10576000815404EBC4111A4602EB410104EBC4124C
:1057700003EB420292F80021881829B205F030F8B4
:1057800004EBC4102E4901EB400090F80001801C8E
:1057900004EBC4112A4A02EB410181F8000104EB39
:1057A000C41102EB410104EBC412254B03EB42028E
:1057B00092F80021881831B205F012F804EBC410F9
:1057C0001F4901EB400090F80001801C04EBC4115C
:1057D0001B4A02EB410181F8000104EBC412184B93
:1057E00003EB420292F8001104EBC41203EB4200F7
:1057F000FBF7FAF9074604EBC411114A02EB410129
:1058000004EBC4120E4B03EB420292F800218818FD
:1058100039B204F0E5FF04EBC410094901EB400084
:1058200090F80001801C04EBC411054A02EB410111
:1058300081F800012046FFF7D9FEBDE8F0810000A5
:10584000E81300202DE9F0470446894615461E4618
:10585000002004EBC411FE4A02EB410181F8000173
:10586000012104EBC41002EB400090F8002104EB8E
:10587000C410F74B03EB400090F80001401C04EB10
:10588000C413F34F07EB430383F8000104EBC41088
:105890003B4603EB40008154102104EBC4101A4630
:1058A00002EB400090F8002104EBC41003EB400031
:1058B00090F80001401C04EBC41307EB430383F88A
:1058C000000104EBC4103B4603EB4000815404EBA1
:1058D000C4111A4602EB410104EBC41203EB42026D
:1058E00092F8002188180FFA89F104F079FF04EB8F
:1058F000C410394601EB400090F80001801C04EB15
:10590000C4113A4602EB410181F80001532D57D1F1
:1059100004EBC41102EB410104EBC4123B4603EB60
:10592000420292F800218818012104F059FF04EB8B
:10593000C410394601EB400090F80001801C04EBD4
:10594000C4113A4602EB410181F80001022104EB47
:10595000C41002EB400090F8002104EBC4103B4659
:1059600003EB400090F80001401C04EBC41307EB6C
:10597000430383F8000104EBC4103B4603EB4000F3
:10598000815404EBC41203EB420204EBC41307EB93
:10599000430393F80031D018B6F9001004F020FF4B
:1059A00004EBC410394601EB400090F80001801C64
:1059B00004EBC4113A4602EB410181F8000112E107
:1059C0004C2D58D104EBC411A14A02EB410104EB68
:1059D000C4129F4B03EB420292F800218818022167
:1059E00004F0FEFE04EBC410994901EB400090F86E
:1059F0000001801C04EBC411954A02EB410181F8BF
:105A00000001042104EBC41002EB400090F80021D7
:105A100004EBC4108E4B03EB400090F80001401CD7
:105A200004EBC4138A4F07EB430383F8000104EB34
:105A3000C4103B4603EB4000815404EBC41203EB5B
:105A4000420204EBC41307EB430393F80031D01870
:105A5000316804F0CAFE04EBC410394601EB400083
:105A600090F80001001D04EBC4113A4602EB41011D
:105A700081F80001B7E0462D58D104EBC411744AF7
:105A800002EB410104EBC412714B03EB420292F8AA
:105A900000218818022104F0A3FE04EBC4106C4915
:105AA00001EB400090F80001801C04EBC411684A2F
:105AB00002EB410181F80001042104EBC41002EB68
:105AC000400090F8002104EBC410614B03EB400050
:105AD00090F80001401C04EBC4135D4F07EB430337
